{
  "contractName": "TrackProduct",
  "abi": [
    {
      "constant": false,
      "inputs": [
        {
          "internalType": "string",
          "name": "farmName",
          "type": "string"
        },
        {
          "internalType": "string",
          "name": "farmAddress",
          "type": "string"
        },
        {
          "internalType": "string",
          "name": "materialName",
          "type": "string"
        },
        {
          "internalType": "uint256",
          "name": "quantity",
          "type": "uint256"
        },
        {
          "internalType": "uint256",
          "name": "price",
          "type": "uint256"
        },
        {
          "internalType": "string",
          "name": "date",
          "type": "string"
        },
        {
          "internalType": "string",
          "name": "productId",
          "type": "string"
        },
        {
          "internalType": "string",
          "name": "productName",
          "type": "string"
        }
      ],
      "name": "storeFirstStage",
      "outputs": [],
      "payable": false,
      "stateMutability": "nonpayable",
      "type": "function"
    },
    {
      "constant": false,
      "inputs": [
        {
          "internalType": "uint256",
          "name": "machinNo",
          "type": "uint256"
        },
        {
          "internalType": "uint256",
          "name": "temperature",
          "type": "uint256"
        },
        {
          "internalType": "uint256",
          "name": "quantity",
          "type": "uint256"
        },
        {
          "internalType": "string",
          "name": "date",
          "type": "string"
        },
        {
          "internalType": "string",
          "name": "productId",
          "type": "string"
        }
      ],
      "name": "storeSecondStage",
      "outputs": [],
      "payable": false,
      "stateMutability": "nonpayable",
      "type": "function"
    },
    {
      "constant": false,
      "inputs": [
        {
          "internalType": "uint256",
          "name": "totalPackets",
          "type": "uint256"
        },
        {
          "internalType": "uint256",
          "name": "boxNumber",
          "type": "uint256"
        },
        {
          "internalType": "string",
          "name": "date",
          "type": "string"
        },
        {
          "internalType": "string",
          "name": "productId",
          "type": "string"
        }
      ],
      "name": "storeThirdStage",
      "outputs": [],
      "payable": false,
      "stateMutability": "nonpayable",
      "type": "function"
    },
    {
      "constant": false,
      "inputs": [
        {
          "internalType": "string",
          "name": "clientName",
          "type": "string"
        },
        {
          "internalType": "string",
          "name": "clientAddress",
          "type": "string"
        },
        {
          "internalType": "uint256",
          "name": "boxDelivered",
          "type": "uint256"
        },
        {
          "internalType": "string",
          "name": "date",
          "type": "string"
        },
        {
          "internalType": "string",
          "name": "productId",
          "type": "string"
        }
      ],
      "name": "storeFourthStage",
      "outputs": [],
      "payable": false,
      "stateMutability": "nonpayable",
      "type": "function"
    },
    {
      "constant": true,
      "inputs": [
        {
          "internalType": "string",
          "name": "productId",
          "type": "string"
        }
      ],
      "name": "getProductDetails",
      "outputs": [
        {
          "components": [
            {
              "internalType": "string",
              "name": "productName",
              "type": "string"
            },
            {
              "components": [
                {
                  "internalType": "string",
                  "name": "farmName",
                  "type": "string"
                },
                {
                  "internalType": "string",
                  "name": "farmAddress",
                  "type": "string"
                },
                {
                  "internalType": "string",
                  "name": "materialName",
                  "type": "string"
                },
                {
                  "internalType": "uint256",
                  "name": "quantity",
                  "type": "uint256"
                },
                {
                  "internalType": "uint256",
                  "name": "price",
                  "type": "uint256"
                },
                {
                  "internalType": "string",
                  "name": "date",
                  "type": "string"
                },
                {
                  "internalType": "bool",
                  "name": "flag",
                  "type": "bool"
                }
              ],
              "internalType": "struct TrackProduct.FirstStage",
              "name": "detail1",
              "type": "tuple"
            },
            {
              "components": [
                {
                  "internalType": "uint256",
                  "name": "machinNo",
                  "type": "uint256"
                },
                {
                  "internalType": "uint256",
                  "name": "temperature",
                  "type": "uint256"
                },
                {
                  "internalType": "uint256",
                  "name": "quantity",
                  "type": "uint256"
                },
                {
                  "internalType": "string",
                  "name": "date",
                  "type": "string"
                },
                {
                  "internalType": "bool",
                  "name": "flag",
                  "type": "bool"
                }
              ],
              "internalType": "struct TrackProduct.SecondStage",
              "name": "detail2",
              "type": "tuple"
            },
            {
              "components": [
                {
                  "internalType": "uint256",
                  "name": "totalPackets",
                  "type": "uint256"
                },
                {
                  "internalType": "uint256",
                  "name": "boxNumber",
                  "type": "uint256"
                },
                {
                  "internalType": "string",
                  "name": "date",
                  "type": "string"
                },
                {
                  "internalType": "bool",
                  "name": "flag",
                  "type": "bool"
                }
              ],
              "internalType": "struct TrackProduct.ThirdStage",
              "name": "detail3",
              "type": "tuple"
            },
            {
              "components": [
                {
                  "internalType": "string",
                  "name": "clientName",
                  "type": "string"
                },
                {
                  "internalType": "string",
                  "name": "clientAddress",
                  "type": "string"
                },
                {
                  "internalType": "uint256",
                  "name": "boxDelivered",
                  "type": "uint256"
                },
                {
                  "internalType": "string",
                  "name": "date",
                  "type": "string"
                },
                {
                  "internalType": "bool",
                  "name": "flag",
                  "type": "bool"
                }
              ],
              "internalType": "struct TrackProduct.FourthStage",
              "name": "detail4",
              "type": "tuple"
            }
          ],
          "internalType": "struct TrackProduct.ProductDetail",
          "name": "detail",
          "type": "tuple"
        }
      ],
      "payable": false,
      "stateMutability": "view",
      "type": "function"
    }
  ],
  "bytecode": "0x608060405234801561001057600080fd5b50611c9d806100206000396000f3fe608060405234801561001057600080fd5b50600436106100575760003560e01c8063198c59b01461005c5780632dcc3dc91461008c578063583ac8be146100a85780637251ece3146100c45780639f8c36e5146100e0575b600080fd5b610076600480360361007191908101906112c9565b6100fc565b6040516100839190611b1c565b60405180910390f35b6100a660048036036100a1919081019061144c565b610894565b005b6100c260048036036100bd91908101906115b6565b610a5f565b005b6100de60048036036100d99190810190611523565b610c04565b005b6100fa60048036036100f5919081019061130a565b610d98565b005b610104610f5e565b6000826040516101149190611a85565b90815260200160405180910390206040518060a0016040529081600082018054600181600116156101000203166002900480601f0160208091040260200160405190810160405280929190818152602001828054600181600116156101000203166002900480156101c65780601f1061019b576101008083540402835291602001916101c6565b820191906000526020600020905b8154815290600101906020018083116101a957829003601f168201915b50505050508152602001600182016040518060e0016040529081600082018054600181600116156101000203166002900480601f0160208091040260200160405190810160405280929190818152602001828054600181600116156101000203166002900480156102785780601f1061024d57610100808354040283529160200191610278565b820191906000526020600020905b81548152906001019060200180831161025b57829003601f168201915b50505050508152602001600182018054600181600116156101000203166002900480601f01602080910402602001604051908101604052809291908181526020018280546001816001161561010002031660029004801561031a5780601f106102ef5761010080835404028352916020019161031a565b820191906000526020600020905b8154815290600101906020018083116102fd57829003601f168201915b50505050508152602001600282018054600181600116156101000203166002900480601f0160208091040260200160405190810160405280929190818152602001828054600181600116156101000203166002900480156103bc5780601f10610391576101008083540402835291602001916103bc565b820191906000526020600020905b81548152906001019060200180831161039f57829003601f168201915b505050505081526020016003820154815260200160048201548152602001600582018054600181600116156101000203166002900480601f0160208091040260200160405190810160405280929190818152602001828054600181600116156101000203166002900480156104725780601f1061044757610100808354040283529160200191610472565b820191906000526020600020905b81548152906001019060200180831161045557829003601f168201915b505050505081526020016006820160009054906101000a900460ff1615151515815250508152602001600882016040518060a0016040529081600082015481526020016001820154815260200160028201548152602001600382018054600181600116156101000203166002900480601f0160208091040260200160405190810160405280929190818152602001828054600181600116156101000203166002900480156105615780601f1061053657610100808354040283529160200191610561565b820191906000526020600020905b81548152906001019060200180831161054457829003601f168201915b505050505081526020016004820160009054906101000a900460ff1615151515815250508152602001600d82016040518060800160405290816000820154815260200160018201548152602001600282018054600181600116156101000203166002900480601f0160208091040260200160405190810160405280929190818152602001828054600181600116156101000203166002900480156106465780601f1061061b57610100808354040283529160200191610646565b820191906000526020600020905b81548152906001019060200180831161062957829003601f168201915b505050505081526020016003820160009054906101000a900460ff1615151515815250508152602001601182016040518060a0016040529081600082018054600181600116156101000203166002900480601f0160208091040260200160405190810160405280929190818152602001828054600181600116156101000203166002900480156107175780601f106106ec57610100808354040283529160200191610717565b820191906000526020600020905b8154815290600101906020018083116106fa57829003601f168201915b50505050508152602001600182018054600181600116156101000203166002900480601f0160208091040260200160405190810160405280929190818152602001828054600181600116156101000203166002900480156107b95780601f1061078e576101008083540402835291602001916107b9565b820191906000526020600020905b81548152906001019060200180831161079c57829003601f168201915b5050505050815260200160028201548152602001600382018054600181600116156101000203166002900480601f0160208091040260200160405190810160405280929190818152602001828054600181600116156101000203166002900480156108655780601f1061083a57610100808354040283529160200191610865565b820191906000526020600020905b81548152906001019060200180831161084857829003601f168201915b505050505081526020016004820160009054906101000a900460ff161515151581525050815250509050919050565b6000816040516108a49190611a85565b9081526020016040518091039020600d0160030160009054906101000a900460ff16610905576040517f08c379a00000000000000000000000000000000000000000000000000000000081526004016108fc90611abc565b60405180910390fd5b600015156000826040516109199190611a85565b908152602001604051809103902060110160040160009054906101000a900460ff1615151461097d576040517f08c379a000000000000000000000000000000000000000000000000000000000815260040161097490611a9c565b60405180910390fd5b610985610fa5565b6040518060a00160405280878152602001868152602001858152602001848152602001600115158152509050806000836040516109c29190611a85565b908152602001604051809103902060110160008201518160000190805190602001906109ef929190610fd6565b506020820151816001019080519060200190610a0c929190610fd6565b50604082015181600201556060820151816003019080519060200190610a33929190610fd6565b5060808201518160040160006101000a81548160ff021916908315150217905550905050505050505050565b600081604051610a6f9190611a85565b908152602001604051809103902060010160060160009054906101000a900460ff16610ad0576040517f08c379a0000000000000000000000000000000000000000000000000000000008152600401610ac790611adc565b60405180910390fd5b60001515600082604051610ae49190611a85565b908152602001604051809103902060080160040160009054906101000a900460ff16151514610b48576040517f08c379a0000000000000000000000000000000000000000000000000000000008152600401610b3f90611a9c565b60405180910390fd5b610b50611056565b6040518060a0016040528087815260200186815260200185815260200184815260200160011515815250905080600083604051610b8d9190611a85565b90815260200160405180910390206008016000820151816000015560208201518160010155604082015181600201556060820151816003019080519060200190610bd8929190610fd6565b5060808201518160040160006101000a81548160ff021916908315150217905550905050505050505050565b600081604051610c149190611a85565b908152602001604051809103902060080160040160009054906101000a900460ff16610c75576040517f08c379a0000000000000000000000000000000000000000000000000000000008152600401610c6c90611afc565b60405180910390fd5b60001515600082604051610c899190611a85565b9081526020016040518091039020600d0160030160009054906101000a900460ff16151514610ced576040517f08c379a0000000000000000000000000000000000000000000000000000000008152600401610ce490611a9c565b60405180910390fd5b610cf5611087565b604051806080016040528086815260200185815260200184815260200160011515815250905080600083604051610d2c9190611a85565b9081526020016040518091039020600d0160008201518160000155602082015181600101556040820151816002019080519060200190610d6d929190610fd6565b5060608201518160030160006101000a81548160ff0219169083151502179055509050505050505050565b60001515600083604051610dac9190611a85565b908152602001604051809103902060010160060160009054906101000a900460ff16151514610e10576040517f08c379a0000000000000000000000000000000000000000000000000000000008152600401610e0790611a9c565b60405180910390fd5b610e186110b1565b6040518060e001604052808a815260200189815260200188815260200187815260200186815260200185815260200160011515815250905080600084604051610e619190611a85565b90815260200160405180910390206001016000820151816000019080519060200190610e8e929190610fd6565b506020820151816001019080519060200190610eab929190610fd6565b506040820151816002019080519060200190610ec8929190610fd6565b50606082015181600301556080820151816004015560a0820151816005019080519060200190610ef9929190610fd6565b5060c08201518160060160006101000a81548160ff02191690831515021790555090505081600084604051610f2e9190611a85565b90815260200160405180910390206000019080519060200190610f529291906110f0565b50505050505050505050565b6040518060a0016040528060608152602001610f78611170565b8152602001610f856111af565b8152602001610f926111e0565b8152602001610f9f61120a565b81525090565b6040518060a00160405280606081526020016060815260200160008152602001606081526020016000151581525090565b828054600181600116156101000203166002900490600052602060002090601f016020900481019282601f1061101757805160ff1916838001178555611045565b82800160010185558215611045579182015b82811115611044578251825591602001919060010190611029565b5b509050611052919061123b565b5090565b6040518060a00160405280600081526020016000815260200160008152602001606081526020016000151581525090565b60405180608001604052806000815260200160008152602001606081526020016000151581525090565b6040518060e001604052806060815260200160608152602001606081526020016000815260200160008152602001606081526020016000151581525090565b828054600181600116156101000203166002900490600052602060002090601f016020900481019282601f1061113157805160ff191683800117855561115f565b8280016001018555821561115f579182015b8281111561115e578251825591602001919060010190611143565b5b50905061116c919061123b565b5090565b6040518060e001604052806060815260200160608152602001606081526020016000815260200160008152602001606081526020016000151581525090565b6040518060a00160405280600081526020016000815260200160008152602001606081526020016000151581525090565b60405180608001604052806000815260200160008152602001606081526020016000151581525090565b6040518060a00160405280606081526020016060815260200160008152602001606081526020016000151581525090565b61125d91905b80821115611259576000816000905550600101611241565b5090565b90565b600082601f83011261127157600080fd5b813561128461127f82611b6b565b611b3e565b915080825260208301602083018583830111156112a057600080fd5b6112ab838284611bf0565b50505092915050565b6000813590506112c381611c43565b92915050565b6000602082840312156112db57600080fd5b600082013567ffffffffffffffff8111156112f557600080fd5b61130184828501611260565b91505092915050565b600080600080600080600080610100898b03121561132757600080fd5b600089013567ffffffffffffffff81111561134157600080fd5b61134d8b828c01611260565b985050602089013567ffffffffffffffff81111561136a57600080fd5b6113768b828c01611260565b975050604089013567ffffffffffffffff81111561139357600080fd5b61139f8b828c01611260565b96505060606113b08b828c016112b4565b95505060806113c18b828c016112b4565b94505060a089013567ffffffffffffffff8111156113de57600080fd5b6113ea8b828c01611260565b93505060c089013567ffffffffffffffff81111561140757600080fd5b6114138b828c01611260565b92505060e089013567ffffffffffffffff81111561143057600080fd5b61143c8b828c01611260565b9150509295985092959890939650565b600080600080600060a0868803121561146457600080fd5b600086013567ffffffffffffffff81111561147e57600080fd5b61148a88828901611260565b955050602086013567ffffffffffffffff8111156114a757600080fd5b6114b388828901611260565b94505060406114c4888289016112b4565b935050606086013567ffffffffffffffff8111156114e157600080fd5b6114ed88828901611260565b925050608086013567ffffffffffffffff81111561150a57600080fd5b61151688828901611260565b9150509295509295909350565b6000806000806080858703121561153957600080fd5b6000611547878288016112b4565b9450506020611558878288016112b4565b935050604085013567ffffffffffffffff81111561157557600080fd5b61158187828801611260565b925050606085013567ffffffffffffffff81111561159e57600080fd5b6115aa87828801611260565b91505092959194509250565b600080600080600060a086880312156115ce57600080fd5b60006115dc888289016112b4565b95505060206115ed888289016112b4565b94505060406115fe888289016112b4565b935050606086013567ffffffffffffffff81111561161b57600080fd5b61162788828901611260565b925050608086013567ffffffffffffffff81111561164457600080fd5b61165088828901611260565b9150509295509295909350565b61166681611bda565b82525050565b600061167782611ba2565b6116818185611bcf565b9350611691818560208601611bff565b80840191505092915050565b60006116a882611b97565b6116b28185611bad565b93506116c2818560208601611bff565b6116cb81611c32565b840191505092915050565b60006116e3601983611bbe565b91507f44657461696c7320616c72656164792070726573656e742121000000000000006000830152602082019050919050565b6000611723601583611bbe565b91507f496e7365727420737461676533206669727374212100000000000000000000006000830152602082019050919050565b6000611763601583611bbe565b91507f496e7365727420737461676531206669727374212100000000000000000000006000830152602082019050919050565b60006117a3601583611bbe565b91507f496e7365727420737461676532206669727374212100000000000000000000006000830152602082019050919050565b600060e08301600083015184820360008601526117f3828261169d565b9150506020830151848203602086015261180d828261169d565b91505060408301518482036040860152611827828261169d565b915050606083015161183c6060860182611a76565b50608083015161184f6080860182611a76565b5060a083015184820360a0860152611867828261169d565b91505060c083015161187c60c086018261165d565b508091505092915050565b600060a08301600083015184820360008601526118a4828261169d565b915050602083015184820360208601526118be828261169d565b91505060408301516118d36040860182611a76565b50606083015184820360608601526118eb828261169d565b9150506080830151611900608086018261165d565b508091505092915050565b600060a0830160008301518482036000860152611928828261169d565b9150506020830151848203602086015261194282826117d6565b9150506040830151848203604086015261195c828261199d565b915050606083015184820360608601526119768282611a13565b915050608083015184820360808601526119908282611887565b9150508091505092915050565b600060a0830160008301516119b56000860182611a76565b5060208301516119c86020860182611a76565b5060408301516119db6040860182611a76565b50606083015184820360608601526119f3828261169d565b9150506080830151611a08608086018261165d565b508091505092915050565b6000608083016000830151611a2b6000860182611a76565b506020830151611a3e6020860182611a76565b5060408301518482036040860152611a56828261169d565b9150506060830151611a6b606086018261165d565b508091505092915050565b611a7f81611be6565b82525050565b6000611a91828461166c565b915081905092915050565b60006020820190508181036000830152611ab5816116d6565b9050919050565b60006020820190508181036000830152611ad581611716565b9050919050565b60006020820190508181036000830152611af581611756565b9050919050565b60006020820190508181036000830152611b1581611796565b9050919050565b60006020820190508181036000830152611b36818461190b565b905092915050565b6000604051905081810181811067ffffffffffffffff82111715611b6157600080fd5b8060405250919050565b600067ffffffffffffffff821115611b8257600080fd5b601f19601f8301169050602081019050919050565b600081519050919050565b600081519050919050565b600082825260208201905092915050565b600082825260208201905092915050565b600081905092915050565b60008115159050919050565b6000819050919050565b82818337600083830152505050565b60005b83811015611c1d578082015181840152602081019050611c02565b83811115611c2c576000848401525b50505050565b6000601f19601f8301169050919050565b611c4c81611be6565b8114611c5757600080fd5b5056fea365627a7a7231582086ee62ab53d8b438d2b5ef63cfc08c793150f10a66bab57b4fc9a7c356c9abf66c6578706572696d656e74616cf564736f6c63430005100040",
  "source": "// SPDX-License-Identifier: MIT\npragma solidity >=0.4.21 <0.7.0;\npragma experimental ABIEncoderV2;\n\ncontract TrackProduct {\n\n    struct FirstStage {\n        string farmName;\n        string farmAddress;\n        string materialName;\n        uint256 quantity;\n        uint256 price;\n        string date;\n        bool flag;\n    }\n    \n    struct SecondStage {\n        uint256 machinNo;\n        uint256 temperature;\n        uint256 quantity;\n        string date;\n        bool flag;\n    }\n    \n    struct ThirdStage {\n        uint256 totalPackets;\n        uint256 boxNumber;\n        string date;\n        bool flag;\n    }\n    \n    struct FourthStage {\n        string clientName;\n        string clientAddress;\n        uint256 boxDelivered;\n        string date;\n        bool flag;\n    }\n    \n    struct ProductDetail{\n        string productName;\n        FirstStage detail1;\n        SecondStage detail2;\n        ThirdStage detail3;\n        FourthStage detail4;\n    }\n    \n    mapping(string => ProductDetail) productDetail;\n\n    function storeFirstStage(\n        string memory farmName,\n        string memory farmAddress,\n        string memory materialName,\n        uint256 quantity,\n        uint256 price,\n        string memory date,\n        string memory productId,\n        string memory productName\n    ) public {\n       \n        require(productDetail[productId].detail1.flag == false, \"Details already present!!\");\n\n        FirstStage memory detail = FirstStage({\n           farmName: farmName,\n           farmAddress: farmAddress,\n           materialName: materialName,\n           quantity: quantity,\n           price: price,\n           date: date,\n           flag: true\n        });\n       \n        productDetail[productId].detail1 = detail;\n        productDetail[productId].productName = productName;\n    }\n    \n    function storeSecondStage(\n        uint256 machinNo,\n        uint256 temperature,\n        uint256 quantity,\n        string memory date,\n        string memory productId\n    ) public {\n        \n        require(productDetail[productId].detail1.flag, \"Insert stage1 first!!\");\n        require(productDetail[productId].detail2.flag == false, \"Details already present!!\");\n        \n        SecondStage memory detail = SecondStage({\n          machinNo: machinNo,\n          temperature: temperature,\n          quantity: quantity,\n          date: date,\n          flag: true\n        });\n        \n        productDetail[productId].detail2 = detail;\n    }\n    \n    function storeThirdStage(\n        uint256 totalPackets,\n        uint256 boxNumber,\n        string memory date,\n        string memory productId\n    ) public {\n        \n        require(productDetail[productId].detail2.flag, \"Insert stage2 first!!\");\n        require(productDetail[productId].detail3.flag == false, \"Details already present!!\");\n        \n        ThirdStage memory detail = ThirdStage({\n          totalPackets: totalPackets,\n          boxNumber: boxNumber,\n          date: date,\n          flag: true\n        });\n        \n        productDetail[productId].detail3 = detail;\n    }\n    \n    function storeFourthStage(\n        string memory clientName,\n        string memory clientAddress,\n        uint256 boxDelivered,\n        string memory date,\n        string memory productId\n    ) public {\n        \n        require(productDetail[productId].detail3.flag, \"Insert stage3 first!!\");\n        require(productDetail[productId].detail4.flag == false, \"Details already present!!\");\n        \n        FourthStage memory detail = FourthStage({\n          clientName: clientName,\n          clientAddress: clientAddress,\n          boxDelivered: boxDelivered,\n          date: date,\n          flag: true\n        });\n        \n        productDetail[productId].detail4 = detail;\n    }\n\n    function getProductDetails(string memory productId) public view returns (ProductDetail memory detail){\n        return productDetail[productId];\n    }\n}",
  "sourcePath": "/Users/shubhamtiwari/Shubham/supplychain/contracts/TrackProduct.sol",
  "compiler": {
    "name": "solc",
    "version": "0.5.16+commit.9c3226ce.Emscripten.clang"
  },
  "schemaVersion": "3.4.3",
  "updatedAt": "2021-12-30T10:25:11.893Z",
  "networkType": "ethereum",
  "devdoc": {
    "methods": {}
  },
  "userdoc": {
    "methods": {}
  }
}